:020000040800F2
:10000000D005002029020008AF120008A71200083E
:10001000AB12000821040008B11400080000000021
:10002000000000000000000000000000B312000803
:100030002504000800000000B1120008B5120008F5
:100040004D0200084D0200084D0200084D02000854
:100050004D0200084D0200084D0200084D02000844
:100060004D0200084D0200084D0200084D02000834
:100070004D0200084D0200084D0200084D02000824
:100080004D0200084D0200084D0200084D02000814
:100090004D0200084D0200084D0200084D02000804
:1000A0004D0200084D0200084D0200084D020008F4
:1000B0004D0200084D0200084D0200084D020008E4
:1000C0004D0200084D0200084D0200084D020008D4
:1000D0004D020008A11400084D0200084D0200085E
:1000E0004D0200084D0200084D0200084D020008B4
:1000F0004D0200084D0200084D0200084D020008A4
:100100004D0200084D0200084D0200084D02000893
:100110004D0200084D0200084D0200084D02000883
:100120004D0200084D0200084D0200084D02000873
:100130004D0200084D0200084D0200084D02000863
:100140004D0200084D0200084D0200084D02000853
:100150004D0200084D0200084D0200084D02000843
:100160004D0200084D0200084D0200084D02000833
:100170004D0200084D0200084D020008000000007A
:100180004D0200084D02000800F002F800F03CF8B3
:100190000AA090E8000C82448344AAF10107DA45E2
:1001A00001D100F031F8AFF2090EBAE80F0013F0F8
:1001B000010F18BFFB1A43F0010318476C20000021
:1001C0008C200000103A24BF78C878C1FAD85207B2
:1001D00024BF30C830C144BF04680C6070470000C1
:1001E0000023002400250026103A28BF78C1FBD840
:1001F000520728BF30C148BF0B6070471FB502F0DF
:1002000001F81FBD10B510BD00F0D7F81146FFF77B
:10021000F5FF01F0D5FB00F0F5F803B4FFF7F2FFAE
:1002200003BC01F063F900000C48016841F470015F
:1002300001600B4880470B480047FEE7FEE7FEE7FA
:10024000FEE7FEE7FEE7FEE7FEE7FEE7FEE700006B
:1002500005480649044A064B7047000088ED00E057
:10026000BD12000889010008D0010020D00500203F
:10027000D0010020704753EA020C00F069802DE99C
:10028000F04B4FF00006002B1FBFB3FA83F503FAC3
:1002900005F424FA05F65E4012BF1643B2FA82F561
:1002A00002FA05F4C5F120051EBF22FA05FC44EA56
:1002B0000C04203556EA044C4FEA144418BF641C61
:1002C0004FF000084FF00009904271EB030C39D356
:1002D000002919BFB1FA81F701FA07F6B0FA80F7E1
:1002E00000FA07F6C7F120071EBF20FA07FC46EA0E
:1002F0000C062037B6FBF4FCA7EB0507103F07F010
:100300001F0BCBF120060CFA0BFB2CFA06F644BFB0
:10031000B3460026202FA4BF5E464FF0000B5BEAD9
:10032000060C08BF4FF0010B19EB0B09ABFB027C6D
:1003300048EB0608C01B06FB02CC0BFB03CC71EBA1
:100340000C01C1E70B46024641464846BDE8F08B2A
:1003500013B54FF000004FF00001AFF30080BDE88F
:100360001C4070474FF0000200B513469446964675
:10037000203922BFA0E80C50A0E80C50B1F12001B8
:10038000BFF4F7AF090728BFA0E80C5048BF0CC066
:100390005DF804EB890028BF40F8042B08BF7047C4
:1003A00048BF20F8022B11F0804F18BF00F8012B36
:1003B00070477047704770477047754600F02CF8DB
:1003C000AE4605006946534620F00700854618B042
:1003D00020B5FFF73DFFBDE820404FF000064FF08D
:1003E00000074FF000084FF0000B21F00701AC466A
:1003F000ACE8C009ACE8C009ACE8C009ACE8C00989
:100400008D46704710B50446AFF300802046BDE826
:100410001040FFF702BF0000004870477001002045
:1004200000BFFEE7704770B50446A56D00F07AF98D
:10043000064694F83500022808D08020606500BF89
:10044000002084F8340000BF012070BD20680068DF
:1004500020F01600216808602068406920F08000C4
:1004600021684861206C08B9A06C28B12068006838
:1004700020F00800216808602068006820F0010072
:10048000216808600FE000F04DF9801B05280AD9AB
:100490002020606500BF002084F8340000BF0320E6
:1004A00084F83500D1E72068006800F001000028DA
:1004B000E9D194F85C103F208840A86000BF00207C
:1004C00084F8340000BF012084F835000020BCE728
:1004D000014691F83500022803D0802048650120AC
:1004E0007047052081F835000868006820F0010099
:1004F0000A6810600020F3E7F8B502460B460025B5
:10050000002400200021DEE0012606FA01F51E6825
:1005100006EA0504AC4275D11E7906F00306012EE9
:1005200004D01E7906F00306022E13D190684F0006
:100530000326BE40B0434F00DE68BE4030439060AB
:10054000506801268E40B0431E79C6F300168E40D7
:10055000304350601E7906F00306032E09D0D068A0
:100560004F000326BE40B0434F009E68BE4030435C
:10057000D0601E7906F00306022E13D1CF0802F1D7
:10058000200656F827004E07F70E0F26BE40B04350
:100590004F07FF0E1E69BE403043CF0802F1200610
:1005A00046F8270010684F000326BE40B0431E796E
:1005B00006F003064F00BE40304310605E6806F050
:1005C0008056B6F1805F7DD100BF00260096404E78
:1005D000366846F480463E4F3E603E46366806F436
:1005E0008046009600BF00BF3A4E8F0856F827009D
:1005F0008E07370F0F26BE40B043374EB24202D1AE
:10060000002624E05EE0354EB24201D101261EE014
:10061000334EB24201D1022619E0324EB24201D12C
:10062000032614E0304EB24201D104260FE02F4ED3
:10063000B24201D105260AE02D4EB24201D1062672
:1006400005E02C4EB24201D1072600E008268F07B4
:100650003F0FBE4030431F4E8F0846F82700264EFE
:100660003068A0435E6806F48036B6F5803F00D15E
:100670002043214E3060361D3068A0435E6806F48A
:100680000036B6F5003F00D120431B4E361D3060CA
:10069000361D3068A0435E6806F48016B6F5801FEC
:1006A00000D12043144E08363060361D3068A04318
:1006B0005E6806F40016B6F5001F00D120430E4E0A
:1006C0000C363060491C1029FFF41EAFF8BD000045
:1006D0004438024008380140000002400004024053
:1006E00000080240000C02400010024000140240CA
:1006F00000180240001C0240003C01400246136901
:100700000B400BB1012000E0002070470AB181616D
:1007100001E00B048361704701480068000C7047DA
:10072000002004E001480068704700003C00002001
:100730000348006803490978084401490860704784
:100740003C0000204400002010B50A48006840F436
:100750000070084908600846006840F4806008603E
:10076000052000F06FF80F2000F006F800F02AF8DE
:10077000002010BD003C024070B504460E480078D1
:100780004FF47A71B1FBF0F00C490968B1FBF0F558
:10079000284600F0D3FB08B1012070BD102C07D211
:1007A00000222146501E00F00EF80548046001E0CA
:1007B0000120F2E70020F0E7440000202C00002098
:1007C0004000002070472DE9F05F80460D46164638
:1007D000002700F06FFE074639462A46334601F0EF
:1007E0000700C0F1070ABAF1040F02D94FF0040A5A
:1007F00001E0C0F1070AD14600F1040ABAF1070F7F
:1008000002D24FF0000A01E0A0F1030AD4464FF0F3
:10081000010A0AFA09FAAAF1010A0AEA020A0AFA1C
:100820000CFA4FF0010B0BFA0CFBABF1010B0BEACE
:10083000030B4AEA0B042146404600F043FEBDE8A4
:10084000F09F000000BF00F00702064B19684FF64A
:10085000FF031940044B0B4343EA0221014B19608B
:1008600000BF70470CED00E00000FA0570B50446CB
:100870000D460CB9012070BD5848006800F0070013
:10088000A84209D255490D700846006800F00700DB
:10089000A84201D00120EEE7207800F002000228F3
:1008A0001DD1207800F00400042805D14C480068D0
:1008B00040F4E0504A490860207800F00800082819
:1008C00005D14748006840F4604045490860444805
:1008D000006820F0F000A1680843414908602078D2
:1008E00000F00100A8B36068012807D13C4808382F
:1008F0000068C0F34040B8B90120BCE76068022836
:1009000002D06068032807D1354808380068C0F372
:10091000406048B90120AEE7314808380068C0F3AC
:10092000400008B90120A6E72D48006820F0030028
:10093000616808432A490860FFF7F4FE064609E0AB
:10094000FFF7F0FE801B41F28831884202D9032074
:1009500091E707E02248006800F00C006168B0EB06
:10096000810FEDD11D48006800F00700A84209D9A9
:100970001A490D700846006800F00700A84201D02F
:10098000012078E7207800F00400042807D11448FB
:10099000006820F4E050E1680843114908602078BD
:1009A00000F00800082808D10D48006820F46040D5
:1009B000216940EAC1000A49086000F019F80849B5
:1009C0000968C1F30311074A515CC8400649086031
:1009D00006480068FFF7D0FE00204CE7003C0240CC
:1009E000083802400E2200082C00002040000020A1
:1009F0002DE9F047002400250026A146254800687F
:100A000000F00C0020B1042805D008283AD105E0F8
:100A1000DFF8849039E0DFF8849036E01D48001F4D
:100A2000006800F03F041B48001F006800F48000CD
:100A300078B11A481749091F0968C1F38811A0FB4A
:100A400001700146224600233846FFF714FC054694
:100A50000EE011480F49091F0968C1F38811A0FB76
:100A600001700146224600233846FFF704FC054684
:100A70000848001F0068C0F30140401C4600B5FB59
:100A8000F6F902E0DFF8109000BF00BF4846BDE86D
:100A9000F0870000083802400024F40000127A00B9
:100AA000F8B504460CB90120F8BD207800F001002B
:100AB000002874D0F948006800F00C0004280DD01C
:100AC000F648006800F00C00082813D1F348001F16
:100AD000006800F48000B0F5800F0BD1EF480838B3
:100AE0000068C0F34040002859D06068002856D103
:100AF0000120D9E700BF6068B0F5803F08D1E74822
:100B00000838006840F48030E449083908601EE085
:100B10006068B0F5A02F0DD1E0480838006840F4B7
:100B20008020DE49083908600846006840F48030BB
:100B300008600CE0D9480838006820F48030D749B4
:100B4000083908600846006820F48020086000BF6B
:100B5000606890B1FFF7E6FD054606E0FFF7E2FDAD
:100B6000401B642801D903209EE7CC480838006860
:100B7000C0F340400028F1D011E0FFF7D3FD054657
:100B800006E0FFF7CFFD401B642801D903208BE767
:100B9000C24808380068C0F340400028F1D12078EE
:100BA00000F0020002285FD1BC48006800F00C0091
:100BB00058B1BA48006800F00C0008281CD1B748AA
:100BC000001F006800F48000B0B9B448083800681D
:100BD000C0F3400020B1E068012801D0012063E7A4
:100BE000AE480838006820F0F800216940EAC100EA
:100BF000AA490839086037E0E06800B30120A84935
:100C00000860FFF78FFD054606E0FFF78BFD401BF0
:100C1000022801D9032047E7A04808380068C0F33C
:100C200040000028F1D09D480838006820F0F80006
:100C3000216940EAC10099490839086014E00020A0
:100C400097490860FFF76EFD054606E0FFF76AFD6D
:100C5000401B022801D9032026E790480838006885
:100C6000C0F340000028F1D1207800F008000828E7
:100C70002CD16069A8B101208A490860FFF752FDB4
:100C8000054606E0FFF74EFD401B022801D9032070
:100C90000AE782486C300068C0F340000028F1D0B9
:100CA00014E000207F490860FFF73CFD054606E0A0
:100CB000FFF738FD401B022801D90320F4E67748EE
:100CC0006C300068C0F340000028F1D1207800F0BB
:100CD0000400042870D1002770483830006800F004
:100CE000805090B900BF002000906C4838300068F8
:100CF00040F080506949383108600846006800F0CB
:100D00008050009000BF00BF01276748006800F4D2
:100D10008070B0B96448006840F48070624908602F
:100D2000FFF700FD054606E0FFF7FCFC401B02282C
:100D300001D90320B8E65C48006800F48070002800
:100D4000F2D000BFA068012808D15448683000687C
:100D500040F001005149683108601DE0A068052895
:100D60000DD14E486830006840F004004B496831AE
:100D700008600846006840F0010008600CE0474841
:100D80006830006820F00100444968310860084676
:100D9000006820F00400086000BFA068A8B1FFF759
:100DA000C1FC054609E0FFF7BDFC401B41F288315C
:100DB000884202D9032077E626E038486830006888
:100DC000C0F340000028EED013E0FFF7ABFC05466F
:100DD00008E0FFF7A7FC401B41F28831884201D9A7
:100DE000032061E62D4868300068C0F34000002809
:100DF000EFD1012F07D129483830006820F080500A
:100E000026493831086000BFA069002845D0234832
:100E1000006800F00C0008285DD0A069022845D1C8
:100E200000201F490866FFF77DFC054606E0FFF736
:100E300079FC401B022801D9032035E61748083801
:100E40000068C0F340600028F1D1D4E907010843ED
:100E5000616A40EA81110122A06AC2EB500041EAB6
:100E600000412C20005D41EA00600C49091F086028
:100E700001200B490866FFF755FC054606E0FFF721
:100E800051FC401B022801D903200DE60348083815
:100E90000068C0F340600028F1D049E00838024003
:100EA00000004742800E4742007000400020214968
:100EB0000866FFF737FC054606E0FFF733FC401BEA
:100EC000022801D90320EFE51B480068C0F3406009
:100ED0000028F2D12CE0A069012800D1E4E51648F1
:100EE000001D0668A069012820D006F48001E06991
:100EF00081421BD106F03F01206A814216D147F69C
:100F0000C0703040616AB0EB811F0FD106F44031F0
:100F10000122A06AC2EB5000B1EB004F06D106F0EF
:100F200070612C20005DB1EB006F01D00120BBE5AA
:100F30000020B9E5000047420038024070B5044681
:100F40002546681EB0F1807F01D301200FE0681EA6
:100F50004FF0E02148610F214FF0FF3000F0B2FA6E
:100F600000204FF0E021886107200861002070BD5B
:100F7000704770472DE9F84F0446206805682068DF
:100F8000C668206847694FF00009CA4605F00F0996
:100F9000B9F1000F0AD105F0200038B106F02000A9
:100FA00020B1204600F0C9F9BDE8F88FB9F1000F73
:100FB00072D007F0010018B906F4907000286BD0C9
:100FC00005F0010030B106F4807018B1206C40F0DB
:100FD0000100206405F0040030B107F0010018B1F1
:100FE000206C40F00200206405F0020030B107F0F0
:100FF000010018B1206C40F00400206405F00800E6
:1010000048B106F0200010B907F0010018B1206CBB
:1010100040F008002064206C70B305F0200028B177
:1010200006F0200010B1204600F087F920684069E2
:10103000C0F3801A206C00F0080010B9BAF1000F5C
:1010400023D0204600F04EF92068406900F04000AF
:10105000402816D12068406920F04000216848618E
:10106000A06B50B15648A16B0865A06BFFF730FA32
:1010700010B1A06B016D88470CE02046FFF779FFA7
:1010800008E02046FFF775FF04E02046FFF771FFF8
:101090000020206488E7FFE7206B012879D105F064
:1010A0001000002875D006F01000002871D000BF95
:1010B0000020009020680068009020684068009040
:1010C00000BF00BF2068406900F04000402839D1CF
:1010D000A06B006840681FFA80F8B8F1000F30D0AC
:1010E000A08D40452DDDA4F82E80A06BC069B0F521
:1010F000807F1FD02068C06820F480702168C8609D
:101100002068406920F0010021684861206840693A
:1011100020F0400021684861202084F83E00002033
:1011200020632068C06820F010002168C860A06BB0
:10113000FFF779F9A08DE28D801A81B22046FFF782
:1011400017FF31E7A08DE18D401A1FFA80F8E08D7E
:10115000E8B1B8F1000F1AD02068C06820F4907090
:101160002168C8602068406920F00100216848615A
:10117000202084F83E00002020632068C06820F012
:1011800010002168C86041462046FFF7F1FE0BE7DA
:10119000FFE705F0800030B106F0800018B120466E
:1011A00000F04DF900E705F0400030B106F04000D6
:1011B00018B1204600F0B1F8F6E600BFF4E60000F2
:1011C000D112000870B504460D46164694F83E004C
:1011D000202816D105B10EB9012070BD00BF94F8CA
:1011E0003C00012801D10220F7E7012084F83C00EF
:1011F00000BF0020206332462946204600F0FCF85C
:10120000EBE70220E9E7000010B50446204920681A
:1012100088423BD11F48008800F4004088BB1D482D
:10122000008800F4804070B11B4800780A2803D081
:1012300000201849088024E01648008840F4004047
:10124000144908801DE0144800780D2806D1114883
:10125000008840F480400F49088012E00E48007872
:101260000C490988C1F30D010C4A50540948008803
:10127000401C0849088008460088C72801DD002076
:101280000880012204490648FFF79CFF10BD0000BA
:1012900000100140380000203A00002064000020C7
:1012A0002C010020704700BFFEE700BFFEE770473B
:1012B0007047704710B5FFF73BFA10BD0348006850
:1012C00040F47000014908607047000088ED00E0BC
:1012D00070B50546AC6B0020E085E0842046FFF742
:1012E00048FE70BD0168C96821F490710268D16040
:1012F0000168496921F0010102685161016B01290E
:1013000005D10168C96821F010010268D16020216F
:1013100080F83E1000210163704710B50446206834
:10132000C06820F040002168C860202084F83D009B
:101330002046FFF7B7FF002010BD70B5044694F8B3
:101340003E00222856D1A068B0F5805F0CD12069FC
:1013500050B90025A66A20684068C0F308003080B4
:10136000A06A801CA06215E0A56A0026A068B0F5FE
:10137000805F03D0A06828B9206918B92068406848
:10138000287004E02068406800F07F002870A06AA0
:10139000401CA062E08D401E80B2E08540BB20680A
:1013A000C06820F020002168C8602068C06820F470
:1013B00080702168C8602068406920F001002168C1
:1013C0004861202084F83E00206B01280AD1206863
:1013D000C06820F010002168C860A18D2046FFF78A
:1013E000C7FD02E02046FFF70FFF0020206370BD1D
:1013F0000020FCE70220FAE710B5034699629A85BF
:10140000DA8500201864222083F83E0000BF002007
:1014100083F83C0000BF1868C06840F480701C6806
:10142000E0601868406940F001001C68606118685D
:10143000C06840F020001C68E060002010BD01463C
:1014400091F83D00212828D18868B0F5805F0BD144
:10145000086948B90A6A1088C0F308000B68586028
:10146000086A801C086205E00B6A581C086218783C
:101470000B685860C88C401E80B2C88458B9086890
:10148000C06820F080000B68D8600868C06840F031
:1014900040000B68D860002070470220FCE7000085
:1014A00010B50248FFF766FD10BD00002C010020BA
:1014B00000BFFEE702480068C0F30220704700004A
:1014C0000CED00E010B5002804DB0A07130E054AF6
:1014D000135406E00A07140E034A00F00F031B1F03
:1014E000D45410BD00E400E018ED00E000BF7047E8
:1014F00010B500BF00224FF400711448FFF706F941
:1015000000BF00BF00224FF480611048FFF7FEF8D3
:1015100000BF00BF002201210D48FFF7F7F800BF10
:1015200000BF002202210B48FFF7F0F800BF00BF08
:10153000002240210548FFF7E9F800BF00BF002264
:1015400010210248FFF7E2F800BF10BD001402406E
:10155000000402400010024001490860704700008A
:101560003000002010B504464FF47A7104FB01F0FE
:1015700000F002F810BD000070B5034600224FF0E5
:10158000E02675690D4E366803FB06F44FF0E02641
:10159000B16910E04FF0E026B06988420BD0884274
:1015A00002D20E1A324402E02E1A0E443244014690
:1015B000A24200D300E0EDE700BF70BD3000002084
:1015C00000B587B000BF00BF002001903848006818
:1015D00040F01000364908600846006800F010002E
:1015E000019000BF00BF00BF00BF00BF00200190FE
:1015F0000846006840F0100008600846006800F0E7
:101600001000019000BF00BF00BF00BF00BF00205E
:1016100001900846006840F0100008600846006825
:1016200000F01000019000BF00BF00BF00BF00BF6E
:10163000002001900846006840F00100086008465C
:10164000006800F00100019000BF00BF00BF102043
:10165000029000200390012004900220059002A92E
:101660001448FEF749FF0820029000200390012053
:1016700004900220059002A90E48FEF73DFF0420C9
:10168000029000200390012004900220059002A9FE
:101690000848FEF731FF012002900020039002204D
:1016A0000490059002A90448FEF726FF07B000BD8C
:1016B00030380240001002400000024010B50446DD
:1016C00004215248FFF71AF858BB0220FFF74AFFDF
:1016D00004214E48FFF712F858B94D4800686428B5
:1016E00007DA4B480068401C494908600020494916
:1016F000087047480068642820D145480068401CAD
:101700004349086001204349087043480078401C61
:10171000414908700846007803280FDB0020087054
:101720000CE03B48006830B139480068642802DAB0
:1017300002203949087000203549086001213748E6
:10174000FEF7DCFF01282CD10220FFF70BFF01215F
:101750003248FEF7D3FF01280BD1314800686428D6
:1017600007DA2F480068401C2D49086002202949EB
:1017700008702B480068642820D129480068401C64
:101780002749086003202349087026480078401C38
:10179000244908700846007803280FDB00200870F1
:1017A0000CE01F48006830B11D480068642802DA68
:1017B00002201C49087000201949086008211348BC
:1017C000FEF79CFFF0B90220FFF7CCFE08210F487E
:1017D000FEF794FFB0B914480068642812DA124882
:1017E0000068401C1049086004200A4908700F482E
:1017F0000078401C0D49087008460078062801DB77
:10180000002008700348007810BD0000001002405E
:101810004800002054000020550000200000024035
:101820004C000020560000205000002057000020EF
:1018300000B587B000BF00BF002001905C48006881
:1018400040F020005A4908600846006800F0200077
:10185000019000BF00BF00BF00BF00BF002001908B
:101860000846006840F0200008600846006800F064
:101870002000019000BF00BF00BF00BF00BF0020DC
:1018800001900846006840F00200086008460068C1
:1018900000F00200019000BF00BF00BF00BF00BF0A
:1018A000002001900846006840F0100008600846DB
:1018B000006800F01000019000BF00BF00BF00BF33
:1018C00000BF002001900846006840F0200008603A
:1018D0000846006800F02000019000BF00BF00BF74
:1018E00000BF00BF002001900846006840F02000C3
:1018F00008600846006800F02000019000BF00BFAB
:1019000000BF48150290012003900490022005902A
:1019100002A92848FEF7F0FD4FF48060029002A96A
:101920002448FEF7E9FD0120029002A92248FEF7B3
:10193000E3FD0220029002A92048FEF7DDFD4020D1
:10194000029002A91B48FEF7D7FD1020029002A9C1
:101950001848FEF7D1FD00BF012251021548FEF7DD
:10196000D5FE00BF00BF012291021248FEF7CEFE55
:1019700000BF00BF012211460F48FEF7C7FE00BF9F
:1019800000BF012202210D48FEF7C0FE00BF00BFCC
:10199000012240210748FEF7B9FE00BF00BF012227
:1019A00010210448FEF7B2FE00BF07B000BD0000E2
:1019B000303802400014024000040240001002408F
:1019C0000024FEF7C1FE0723022208214FF4A8706D
:1019D00000F0AAFBA820FFF7BFFDFFF729FFFFF7E4
:1019E000EFFD00BF00224FF400718F48FEF78EFE1E
:1019F00000BF00BF00224FF480618B48FEF786FED7
:101A000000BF00BF002201218848FEF77FFE00BF13
:101A100000BF002202218648FEF778FE00BF00BF0B
:101A2000002240218048FEF771FE00BF00BF002267
:101A300010217D48FEF76AFE00BFF4E00020FFF7AA
:101A40003DFE04465CB97B480068642190FBF1F2DE
:101A500001FB1200002801D100F0F2F8DBE0012CBC
:101A60000ED17548007858B972480068A72190FBDC
:101A7000F1F201FB12000028F0D100F0E1F8CAE019
:101A8000012C0FD16C48007801280BD169480068FF
:101A90002D2190FBF1F201FB12000028DED100F0B5
:101AA000CFF8B8E0012C0FD16348007802280BD1A1
:101AB00060480068212190FBF1F201FB1200002830
:101AC000CCD100F0BDF8A6E0022C0BD1594800683B
:101AD000642190FBF1F201FB12000028BED100F05E
:101AE00087F998E0032C0ED15448007858B9514832
:101AF0000068642190FBF1F201FB1200002801D183
:101B000000F0AAF987E0032C0FD14C480078012897
:101B10000BD148480068642190FBF1F201FB1200F0
:101B2000002878D100F0C0F975E0032C0FD14348AC
:101B3000007802280BD13F480068642190FBF1F245
:101B400001FB1200002866D100F0D6F963E0042CF6
:101B50000DD13A48007850B936480068642190FBAE
:101B6000F1F201FB120018BB00F0EEF953E0042C77
:101B70000ED13248007801280AD12E48006864212D
:101B800090FBF1F201FB120090B900F005FA42E07F
:101B9000042C0ED12948007802280AD12548006873
:101BA000642190FBF1F201FB120008B900F01CFA6D
:101BB00031E0042C0ED12148007803280AD11D48B9
:101BC0000068642190FBF1F201FB120018BB00F0E9
:101BD00033FA20E0042C0ED11848007804280AD1EA
:101BE00014480068642190FBF1F201FB120090B9E7
:101BF00000F04AFA0FE0042C0DD1104800780528B7
:101C000009D10C480068642190FBF1F201FB12003D
:101C100008B900F061FA07480068401C05490860EF
:101C20000A20FFF79FFC09E700140240000402406D
:101C30000010024004000020550000205600002043
:101C400010B5FFF755FC6648006868B900BF01226F
:101C500051026448FEF75AFD00BF00BF0122102167
:101C60006048FEF753FDAFE05D48006801281BD1D6
:101C700000BF012241025B48FEF748FD00BF00BFE4
:101C8000012210215748FEF741FD00BF00BF01228D
:101C900091025448FEF73AFD00BF00BF01224021E7
:101CA0005048FEF733FD8FE04D480068022829D1E7
:101CB00000BF012201024B48FEF728FD00BF00BF14
:101CC000012210214748FEF721FD00BF00BF01227D
:101CD00091024448FEF71AFD00BF00BF01224021D7
:101CE0004048FEF713FD00BF00BF012211463E48E9
:101CF000FEF70CFD00BF00BF012202213B48FEF7AA
:101D000005FD61E036480068032829D100BF0122A3
:101D100051023448FEF7FAFC00BF00BF0122102137
:101D20003048FEF7F3FC00BF00BF012291022D48AE
:101D3000FEF7ECFC00BF00BF012240212948FEF75E
:101D4000E5FC00BF00BF002201212748FEF7DEFCB2
:101D500000BF00BF002202212448FEF7D7FC33E079
:101D60001F48006804281CD100BF0122C1011D4882
:101D7000FEF7CCFC00BF00BF012210211948FEF77E
:101D8000C5FC00BF00BF00224FF480611548FEF77C
:101D9000BDFC00BF00BF002240211248FEF7B6FC88
:101DA00012E00F48006805280ED100BF00224FF452
:101DB00000710C48FEF7AAFC00BF00BF00221021F2
:101DC0000848FEF7A3FC00BF05480068401C044912
:101DD000086008460068062801DB0020086010BD86
:101DE00000000020001402400004024000100240E5
:101DF00010B500BF012251021448FEF787FC00BF56
:101E000000BF00224FF480611048FEF77FFC00BF46
:101E100000BF002201210E48FEF778FC00BF00BF82
:101E2000002202210B48FEF771FC00BF00BF002218
:101E300040210648FEF76AFC00BF00BF00221021C7
:101E40000248FEF763FC00BF10BD00000014024012
:101E5000000402400010024010B51BE000BF012248
:101E600051020F48FEF752FC00BF4FF4FA60FFF733
:101E700079FB00BF00224FF400710948FEF746FCD1
:101E800000BF4FF4FA60FFF76DFB06480068401C86
:101E900004490860034800680328DFDB10BD000028
:101EA000001402400800002010B51BE000BF012212
:101EB00051020F48FEF72AFC00BF40F24130FFF705
:101EC00051FB00BF00224FF400710948FEF71EFCD1
:101ED00000BF40F24130FFF745FB06480068401C58
:101EE00004490860034800680528DFDB10BD0000D6
:101EF000001402400C00002010B51BE000BF0122BE
:101F000051020F48FEF702FC00BF4FF4FA70FFF7D2
:101F100029FB00BF00224FF400710948FEF7F6FBD1
:101F200000BF4FF4FA70FFF71DFB06480068401C25
:101F300004490860034800680528DFDB10BD000085
:101F4000001402401000002010B51BE000BF012269
:101F500051020F48FEF7DAFB00BF4FF4FA70FFF7AB
:101F600001FB00BF00224FF400710948FEF7CEFBD1
:101F700000BF4FF4FA70FFF7F5FA06480068401CFE
:101F800004490860034800680528DFDB10BD000035
:101F9000001402401400002010B51BE000BF012215
:101FA00051020F48FEF7B2FB00BF4FF4FA70FFF783
:101FB000D9FA00BF00224FF400710948FEF7A6FBD2
:101FC00000BF4FF4FA70FFF7CDFA06480068401CD6
:101FD00004490860034800680528DFDB10BD0000E5
:101FE000001402401800002010B51BE000BF0122C1
:101FF00051020F48FEF78AFB00BF4FF4FA70FFF75B
:10200000B1FA00BF00224FF400710948FEF77EFBD1
:1020100000BF4FF4FA70FFF7A5FA06480068401CAD
:1020200004490860034800680528DFDB10BD000094
:10203000001402401C00002010B51BE000BF01226C
:1020400051020F48FEF762FB00BF4FF4FA70FFF732
:1020500089FA00BF00224FF400710948FEF756FBD1
:1020600000BF4FF4FA70FFF77DFA06480068401C85
:1020700004490860034800680528DFDB10BD000044
:10208000001402402000002010B51BE000BF012218
:1020900051020F48FEF73AFB00BF4FF4FA70FFF70A
:1020A00061FA00BF00224FF400710948FEF72EFBD1
:1020B00000BF4FF4FA70FFF755FA06480068401C5D
:1020C00004490860034800680528DFDB10BD0000F4
:1020D000001402402400002010B51BE000BF0122C4
:1020E00051020F48FEF712FB00BF4FF4FA70FFF7E2
:1020F00039FA00BF00224FF400710948FEF706FBD1
:1021000000BF4FF4FA70FFF72DFA06480068401C34
:1021100004490860034800680528DFDB10BD0000A3
:1021200000140240280000202DE9F04192B08046C2
:102130000C4615461E460027302106A8FEF712F968
:10214000142101A8FEF70EF900BF002000902A48D4
:10215000006840F08050284908600846006800F098
:102160008050009000BF00BF00BF002000902348B7
:10217000006840F48040214908600846006800F487
:102180008040009000BF00BF01200690000407902F
:1021900002200C9041050D91CDF83C800E941095D5
:1021A000119606A8FEF77CFC07461FB1012012B06D
:1021B000BDE8F0810F2001900220029000200390E2
:1021C0004FF4A05004904FF480500590052101A8D1
:1021D000FEF74CFB07460FB10120E8E7FEF79CFA3B
:1021E00041F20101884205D10548006840F4807041
:1021F000034908600020DAE74038024000700040E0
:10220000003C02404FF04070E1EE100A70470000C1
:102210000000000000000102030406070809000096
:102220000000010203040000482200080000002012
:1022300064000000C4010008AC2200086400002013
:102240006C050000E0010008000000000000000034
:10225000000000000000000000000000000000007E
:10226000000000000000000000000000000000006E
:10227000000000000024F400000000000000000046
:10228000000000000000000010000000010000003D
:102290000000000000000000000000000002020535
:0C22A00001000000000000000000000031
:040000050800018965
:00000001FF
